{
  "_format": "hh-sol-artifact-1",
  "contractName": "RequestTokenRegistry",
  "sourceName": "contracts/factory/RequestTokenRegistry.sol",
  "abi": [
    {
      "inputs": [],
      "stateMutability": "nonpayable",
      "type": "constructor"
    },
    {
      "anonymous": false,
      "inputs": [
        {
          "indexed": true,
          "internalType": "address",
          "name": "previousOwner",
          "type": "address"
        },
        {
          "indexed": true,
          "internalType": "address",
          "name": "newOwner",
          "type": "address"
        }
      ],
      "name": "OwnershipTransferred",
      "type": "event"
    },
    {
      "anonymous": false,
      "inputs": [
        {
          "indexed": true,
          "internalType": "address",
          "name": "requestToken",
          "type": "address"
        },
        {
          "indexed": false,
          "internalType": "string",
          "name": "tokenName",
          "type": "string"
        },
        {
          "indexed": false,
          "internalType": "string",
          "name": "tokenSymbol",
          "type": "string"
        },
        {
          "indexed": false,
          "internalType": "uint8",
          "name": "tokenDecimals",
          "type": "uint8"
        },
        {
          "indexed": true,
          "internalType": "address",
          "name": "tokenAddress",
          "type": "address"
        }
      ],
      "name": "Registered",
      "type": "event"
    },
    {
      "anonymous": false,
      "inputs": [
        {
          "indexed": true,
          "internalType": "address",
          "name": "requestToken",
          "type": "address"
        },
        {
          "indexed": false,
          "internalType": "string",
          "name": "tokenName",
          "type": "string"
        },
        {
          "indexed": false,
          "internalType": "string",
          "name": "tokenSymbol",
          "type": "string"
        },
        {
          "indexed": false,
          "internalType": "uint8",
          "name": "tokenDecimals",
          "type": "uint8"
        },
        {
          "indexed": true,
          "internalType": "address",
          "name": "tokenAddress",
          "type": "address"
        }
      ],
      "name": "Unregistered",
      "type": "event"
    },
    {
      "inputs": [
        {
          "internalType": "contract ERC20PresetMinterPauser",
          "name": "token",
          "type": "address"
        }
      ],
      "name": "createRequestToken",
      "outputs": [],
      "stateMutability": "nonpayable",
      "type": "function"
    },
    {
      "inputs": [],
      "name": "getRequestTokenList",
      "outputs": [
        {
          "internalType": "address[]",
          "name": "",
          "type": "address[]"
        }
      ],
      "stateMutability": "view",
      "type": "function"
    },
    {
      "inputs": [],
      "name": "owner",
      "outputs": [
        {
          "internalType": "address",
          "name": "",
          "type": "address"
        }
      ],
      "stateMutability": "view",
      "type": "function"
    },
    {
      "inputs": [
        {
          "internalType": "address",
          "name": "requestToken",
          "type": "address"
        }
      ],
      "name": "register",
      "outputs": [],
      "stateMutability": "nonpayable",
      "type": "function"
    },
    {
      "inputs": [],
      "name": "renounceOwnership",
      "outputs": [],
      "stateMutability": "nonpayable",
      "type": "function"
    },
    {
      "inputs": [],
      "name": "template",
      "outputs": [
        {
          "internalType": "address",
          "name": "",
          "type": "address"
        }
      ],
      "stateMutability": "view",
      "type": "function"
    },
    {
      "inputs": [
        {
          "internalType": "address",
          "name": "newOwner",
          "type": "address"
        }
      ],
      "name": "transferOwnership",
      "outputs": [],
      "stateMutability": "nonpayable",
      "type": "function"
    },
    {
      "inputs": [
        {
          "internalType": "address",
          "name": "requestToken",
          "type": "address"
        }
      ],
      "name": "unregister",
      "outputs": [],
      "stateMutability": "nonpayable",
      "type": "function"
    }
  ],
  "bytecode": "0x608060405234801561001057600080fd5b5061001a33610068565b604051610026906100b8565b604051809103906000f080158015610042573d6000803e3d6000fd5b50600180546001600160a01b0319166001600160a01b03929092169190911790556100c5565b600080546001600160a01b038381166001600160a01b0319831681178455604051919092169283917f8be0079c531659141344cd1fd0a4f28419497f9722a3daafe3b4186f6b6457e09190a35050565b611dd380610f5883390190565b610e84806100d46000396000f3fe608060405234801561001057600080fd5b50600436106100885760003560e01c806371ca473a1161005b57806371ca473a146100ed5780638da5cb5b14610102578063eb699bb514610113578063f2fde38b1461012657600080fd5b80632ec2c2461461008d5780634420e486146100a25780636f2ddd93146100b5578063715018a6146100e5575b600080fd5b6100a061009b366004610bc6565b610139565b005b6100a06100b0366004610bc6565b6103df565b6001546100c8906001600160a01b031681565b6040516001600160a01b0390911681526020015b60405180910390f35b6100a0610554565b6100f5610568565b6040516100dc9190610bea565b6000546001600160a01b03166100c8565b6100a0610121366004610bc6565b610686565b6100a0610134366004610bc6565b610947565b6101416109bd565b6040805180820190915260018152600360fc1b60208201526001600160a01b0382166101895760405162461bcd60e51b81526004016101809190610c87565b60405180910390fd5b506001600160a01b03811660009081526002602090815260409182902054825180840190935260018352601960f91b9183019190915260ff166101df5760405162461bcd60e51b81526004016101809190610c87565b506001600160a01b0381166000818152600260209081526040808320805460ff191690558051637e062a3560e11b8152905185949263fc0c546a92600480820193918290030181865afa15801561023a573d6000803e3d6000fd5b505050506040513d601f19601f8201168201806040525081019061025e9190610c9a565b9050806001600160a01b0316836001600160a01b03167f3fe26872c725814931d7e122498610dd6564aeba3c592d7b7029bad655e1eceb836001600160a01b03166306fdde036040518163ffffffff1660e01b8152600401600060405180830381865afa1580156102d3573d6000803e3d6000fd5b505050506040513d6000823e601f3d908101601f191682016040526102fb9190810190610ccd565b846001600160a01b03166395d89b416040518163ffffffff1660e01b8152600401600060405180830381865afa158015610339573d6000803e3d6000fd5b505050506040513d6000823e601f3d908101601f191682016040526103619190810190610ccd565b856001600160a01b031663313ce5676040518163ffffffff1660e01b8152600401602060405180830381865afa15801561039f573d6000803e3d6000fd5b505050506040513d601f19601f820116820180604052508101906103c39190610d7a565b6040516103d293929190610d9d565b60405180910390a3505050565b6103e76109bd565b6040805180820190915260018152600360fc1b60208201526001600160a01b0382166104265760405162461bcd60e51b81526004016101809190610c87565b506001600160a01b03811660009081526002602052604090205460ff16610551576001600160a01b0381166000908152600260205260409020805460ff1916600117905561047381610a17565b60008190506000816001600160a01b031663fc0c546a6040518163ffffffff1660e01b8152600401602060405180830381865afa1580156104b8573d6000803e3d6000fd5b505050506040513d601f19601f820116820180604052508101906104dc9190610c9a565b9050806001600160a01b0316836001600160a01b03167f08c7737e225ece606827db16cdab525ae255f0116c162eb5d49d9d42ff1feb6c836001600160a01b03166306fdde036040518163ffffffff1660e01b8152600401600060405180830381865afa1580156102d3573d6000803e3d6000fd5b50565b61055c6109bd565b6105666000610ac7565b565b60035460609060008167ffffffffffffffff81111561058957610589610cb7565b6040519080825280602002602001820160405280156105b2578160200160208202803683370190505b5090506000805b8381101561067d5760026000600383815481106105d8576105d8610dd6565b60009182526020808320909101546001600160a01b0316835282019290925260400190205460ff161561066b576003818154811061061857610618610dd6565b6000918252602090912001546001600160a01b0316838361063881610dec565b94508151811061064a5761064a610dd6565b60200260200101906001600160a01b031690816001600160a01b0316815250505b8061067581610dec565b9150506105b9565b50815292915050565b61068e6109bd565b6040805180820190915260018152600360fc1b60208201526001600160a01b0382166106cd5760405162461bcd60e51b81526004016101809190610c87565b50806001600160a01b03166391d14854826001600160a01b031663a217fddf6040518163ffffffff1660e01b8152600401602060405180830381865afa15801561071b573d6000803e3d6000fd5b505050506040513d601f19601f8201168201806040525081019061073f9190610e13565b6040516001600160e01b031960e084901b1681526004810191909152306024820152604401602060405180830381865afa158015610781573d6000803e3d6000fd5b505050506040513d601f19601f820116820180604052508101906107a59190610e2c565b604051806040016040528060018152602001603760f81b815250906107dd5760405162461bcd60e51b81526004016101809190610c87565b506001546000906107f6906001600160a01b0316610b17565b90506001600160a01b03811663485cc955336040516001600160e01b031960e084901b1681526001600160a01b0391821660048201529085166024820152604401600060405180830381600087803b15801561085157600080fd5b505af1158015610865573d6000803e3d6000fd5b50505050816001600160a01b0316632f2ff15d836001600160a01b031663d53913936040518163ffffffff1660e01b8152600401602060405180830381865afa1580156108b6573d6000803e3d6000fd5b505050506040513d601f19601f820116820180604052508101906108da9190610e13565b6040516001600160e01b031960e084901b16815260048101919091526001600160a01b0384166024820152604401600060405180830381600087803b15801561092257600080fd5b505af1158015610936573d6000803e3d6000fd5b50505050610943816103df565b5050565b61094f6109bd565b6001600160a01b0381166109b45760405162461bcd60e51b815260206004820152602660248201527f4f776e61626c653a206e6577206f776e657220697320746865207a65726f206160448201526564647265737360d01b6064820152608401610180565b61055181610ac7565b6000546001600160a01b031633146105665760405162461bcd60e51b815260206004820181905260248201527f4f776e61626c653a2063616c6c6572206973206e6f7420746865206f776e65726044820152606401610180565b60035460005b81811015610a7357826001600160a01b031660038281548110610a4257610a42610dd6565b6000918252602090912001546001600160a01b031603610a6157505050565b80610a6b81610dec565b915050610a1d565b5050600380546001810182556000919091527fc2575a0e9e593c00f959f8c92f12db2869c3395a3b0502d05e2516446f71f85b0180546001600160a01b0319166001600160a01b0392909216919091179055565b600080546001600160a01b038381166001600160a01b0319831681178455604051919092169283917f8be0079c531659141344cd1fd0a4f28419497f9722a3daafe3b4186f6b6457e09190a35050565b6000763d602d80600a3d3981f3363d3d373d3d3d363d730000008260601b60e81c176000526e5af43d82803e903d91602b57fd5bf38260781b17602052603760096000f090506001600160a01b038116610bac5760405162461bcd60e51b8152602060048201526016602482015275115490cc4c4d8dce8818dc99585d194819985a5b195960521b6044820152606401610180565b919050565b6001600160a01b038116811461055157600080fd5b600060208284031215610bd857600080fd5b8135610be381610bb1565b9392505050565b6020808252825182820181905260009190848201906040850190845b81811015610c2b5783516001600160a01b031683529284019291840191600101610c06565b50909695505050505050565b60005b83811015610c52578181015183820152602001610c3a565b50506000910152565b60008151808452610c73816020860160208601610c37565b601f01601f19169290920160200192915050565b602081526000610be36020830184610c5b565b600060208284031215610cac57600080fd5b8151610be381610bb1565b634e487b7160e01b600052604160045260246000fd5b600060208284031215610cdf57600080fd5b815167ffffffffffffffff80821115610cf757600080fd5b818401915084601f830112610d0b57600080fd5b815181811115610d1d57610d1d610cb7565b604051601f8201601f19908116603f01168101908382118183101715610d4557610d45610cb7565b81604052828152876020848701011115610d5e57600080fd5b610d6f836020830160208801610c37565b979650505050505050565b600060208284031215610d8c57600080fd5b815160ff81168114610be357600080fd5b606081526000610db06060830186610c5b565b8281036020840152610dc28186610c5b565b91505060ff83166040830152949350505050565b634e487b7160e01b600052603260045260246000fd5b600060018201610e0c57634e487b7160e01b600052601160045260246000fd5b5060010190565b600060208284031215610e2557600080fd5b5051919050565b600060208284031215610e3e57600080fd5b81518015158114610be357600080fdfea264697066735822122006dd2b588392fcfbde7f8268dbe94d97645251e2b58cd0253f432364aed2e9e364736f6c63430008120033608060405234801561001057600080fd5b50611db3806100206000396000f3fe608060405234801561001057600080fd5b506004361061010b5760003560e01c80637e137003116100a2578063a217fddf11610071578063a217fddf14610267578063ac7a1ba41461026f578063ae36926114610282578063d547741f146102a9578063fc0c546a146102bc57600080fd5b80637e137003146101f157806381d12c581461020457806391d14854146102295780639ec606821461023c57600080fd5b806336568abe116100de57806336568abe146101a5578063485cc955146101b857806358340334146101cb5780636a4fa872146101de57600080fd5b806301ffc9a7146101105780631311916114610138578063248a9ca31461016d5780632f2ff15d14610190575b600080fd5b61012361011e366004611828565b6102e7565b60405190151581526020015b60405180910390f35b61015f7f14823911f2da1b49f045a0929a60b8c1f2a7fc8c06c7284ca3e8ab4e193a08c881565b60405190815260200161012f565b61015f61017b366004611852565b60009081526020819052604090206001015490565b6101a361019e366004611880565b61031e565b005b6101a36101b3366004611880565b610348565b6101a36101c63660046118b0565b6103cb565b6101a36101d9366004611995565b6104f6565b6101a36101ec3660046119ec565b610a78565b6101a36101ff3660046119ec565b610ea6565b610217610212366004611852565b6111b8565b60405161012f96959493929190611a74565b610123610237366004611880565b61120f565b61015f61024a366004611abd565b805160208183018101805160028252928201919093012091525481565b61015f600081565b6101a361027d3660046119ec565b611238565b61015f7f2882d409365a50c684fae709d3db405f6fd025cd4d815228377ccc14efd8b57c81565b6101a36102b7366004611880565b6114ff565b6004546102cf906001600160a01b031681565b6040516001600160a01b03909116815260200161012f565b60006001600160e01b03198216637965db0b60e01b148061031857506301ffc9a760e01b6001600160e01b03198316145b92915050565b60008281526020819052604090206001015461033981611524565b6103438383611531565b505050565b6001600160a01b03811633146103bd5760405162461bcd60e51b815260206004820152602f60248201527f416363657373436f6e74726f6c3a2063616e206f6e6c792072656e6f756e636560448201526e103937b632b9903337b91039b2b63360891b60648201526084015b60405180910390fd5b6103c782826115b5565b5050565b600154610100900460ff16158080156103e857506001805460ff16105b806104015750303b15801561040157506001805460ff16145b6104645760405162461bcd60e51b815260206004820152602e60248201527f496e697469616c697a61626c653a20636f6e747261637420697320616c72656160448201526d191e481a5b9a5d1a585b1a5e995960921b60648201526084016103b4565b6001805460ff1916811790558015610486576001805461ff0019166101001790555b610491600084611531565b600480546001600160a01b0319166001600160a01b0384161790558015610343576001805461ff00191681556040519081527f7f26b83ff96e1f2b6a682f133852f6798a09c465da95921460cefb3847402498906020015b60405180910390a1505050565b6105207f14823911f2da1b49f045a0929a60b8c1f2a7fc8c06c7284ca3e8ab4e193a08c83361120f565b604051806040016040528060018152602001603160f81b815250906105585760405162461bcd60e51b81526004016103b49190611b1e565b506004546001600160a01b03166105815760405162461bcd60e51b81526004016103b490611b51565b6040805180820190915260018152601b60f91b6020820152826105b75760405162461bcd60e51b81526004016103b49190611b1e565b506002816040516105c89190611b7e565b90815260200160405180910390205460001461060d5760408051808201825260018152603560f81b6020820152905162461bcd60e51b81526103b49190600401611b1e565b600083600181111561062157610621611a3a565b036106e8576004546000906001600160a01b03166370a08231336040516001600160e01b031960e084901b1681526001600160a01b039091166004820152602401602060405180830381865afa15801561067f573d6000803e3d6000fd5b505050506040513d601f19601f820116820180604052508101906106a39190611b9a565b905080831115604051806040016040528060018152602001600760fb1b815250906106e15760405162461bcd60e51b81526004016103b49190611b1e565b50506107fd565b600480546040805163d539139360e01b815290516001600160a01b03909216926391d1485492849263d539139392818101926020929091908290030181865afa158015610739573d6000803e3d6000fd5b505050506040513d601f19601f8201168201806040525081019061075d9190611b9a565b6040516001600160e01b031960e084901b1681526004810191909152306024820152604401602060405180830381865afa15801561079f573d6000803e3d6000fd5b505050506040513d601f19601f820116820180604052508101906107c39190611bb3565b604051806040016040528060018152602001603760f81b815250906107fb5760405162461bcd60e51b81526004016103b49190611b1e565b505b6003544390814090610810906001611beb565b6002846040516108209190611b7e565b90815260200160405180910390208190555060006040518060c0016040528060028660405161084f9190611b7e565b908152602001604051809103902054815260200187600181111561087557610875611a3a565b8152602001336001600160a01b03168152602081018790526040810184905260600160009052600380546001808201835560009290925282517fc2575a0e9e593c00f959f8c92f12db2869c3395a3b0502d05e2516446f71f85b600590920291820190815560208401517fc2575a0e9e593c00f959f8c92f12db2869c3395a3b0502d05e2516446f71f85c909201805494955085949193909160ff191690838181111561092457610924611a3a565b021790555060408201518160010160016101000a8154816001600160a01b0302191690836001600160a01b03160217905550606082015181600201556080820151816003015560a08201518160040160006101000a81548160ff0219169083600381111561099457610994611a3a565b0217905550600091506109a49050565b8660018111156109b6576109b6611a3a565b03610a3957600480546040516323b872dd60e01b81523392810192909252306024830152604482018790526001600160a01b0316906323b872dd906064016020604051808303816000875af1158015610a13573d6000803e3d6000fd5b505050506040513d601f19601f82011682018060405250810190610a379190611bb3565b505b7f5c48d83deddd35341a91dc717920d4c81d0be96d909f02df35ebb85b2c25ba8181604051610a689190611bfe565b60405180910390a1505050505050565b610aa27f2882d409365a50c684fae709d3db405f6fd025cd4d815228377ccc14efd8b57c3361120f565b604051806040016040528060018152602001603160f81b81525090610ada5760405162461bcd60e51b81526004016103b49190611b1e565b506004546001600160a01b0316610b035760405162461bcd60e51b81526004016103b490611b51565b600281604051610b139190611b7e565b908152602001604051809103902054600003610b585760408051808201825260018152601960f91b6020820152905162461bcd60e51b81526103b49190600401611b1e565b600060036001600284604051610b6e9190611b7e565b908152602001604051809103902054610b879190611c59565b81548110610b9757610b97611c6c565b90600052602060002090600502019050826001811115610bb957610bb9611a3a565b60018083015460ff1690811115610bd257610bd2611a3a565b14604051806040016040528060018152602001603960f81b81525090610c0b5760405162461bcd60e51b81526004016103b49190611b1e565b506000600482015460ff166003811115610c2757610c27611a3a565b14604051806040016040528060018152602001600d60fa1b81525090610c605760405162461bcd60e51b81526004016103b49190611b1e565b506000836001811115610c7557610c75611a3a565b03610cde57600480546002830154604051630852cd8d60e31b8152928301526001600160a01b0316906342966c6890602401600060405180830381600087803b158015610cc157600080fd5b505af1158015610cd5573d6000803e3d6000fd5b50505050610e67565b600480546040805163d539139360e01b815290516001600160a01b03909216926391d1485492849263d539139392818101926020929091908290030181865afa158015610d2f573d6000803e3d6000fd5b505050506040513d601f19601f82011682018060405250810190610d539190611b9a565b6040516001600160e01b031960e084901b1681526004810191909152306024820152604401602060405180830381865afa158015610d95573d6000803e3d6000fd5b505050506040513d601f19601f82011682018060405250810190610db99190611bb3565b604051806040016040528060018152602001603760f81b81525090610df15760405162461bcd60e51b81526004016103b49190611b1e565b5060048054600183015460028401546040516340c10f1960e01b81526001600160a01b03610100909304831694810194909452602484015216906340c10f1990604401600060405180830381600087803b158015610e4e57600080fd5b505af1158015610e62573d6000803e3d6000fd5b505050505b60048101805460ff191660011790556040517f7a8b494e847a839164777c872972abc76fb9f15041129ca10555cd2221fa6ceb906104e9908390611c82565b610ed07f14823911f2da1b49f045a0929a60b8c1f2a7fc8c06c7284ca3e8ab4e193a08c83361120f565b604051806040016040528060018152602001603160f81b81525090610f085760405162461bcd60e51b81526004016103b49190611b1e565b506004546001600160a01b0316610f315760405162461bcd60e51b81526004016103b490611b51565b600281604051610f419190611b7e565b908152602001604051809103902054600003610f865760408051808201825260018152601960f91b6020820152905162461bcd60e51b81526103b49190600401611b1e565b600060036001600284604051610f9c9190611b7e565b908152602001604051809103902054610fb59190611c59565b81548110610fc557610fc5611c6c565b90600052602060002090600502019050826001811115610fe757610fe7611a3a565b60018083015460ff169081111561100057611000611a3a565b14604051806040016040528060018152602001603960f81b815250906110395760405162461bcd60e51b81526004016103b49190611b1e565b5060018181015460408051808201909152918252603360f81b602083015261010090046001600160a01b031633146110845760405162461bcd60e51b81526004016103b49190611b1e565b506000600482015460ff1660038111156110a0576110a0611a3a565b14604051806040016040528060018152602001600d60fa1b815250906110d95760405162461bcd60e51b81526004016103b49190611b1e565b5060048101805460ff1916600217905560008360018111156110fd576110fd611a3a565b0361118957600480546001830154600284015460405163a9059cbb60e01b81526001600160a01b036101009093048316948101949094526024840152169063a9059cbb906044016020604051808303816000875af1158015611163573d6000803e3d6000fd5b505050506040513d601f19601f820116820180604052508101906111879190611bb3565b505b7f7d6362ebe35ed71c5c0586c6593d980a2393f9b1c46567fe0b01cd4296499061816040516104e99190611c82565b600381815481106111c857600080fd5b60009182526020909120600590910201805460018201546002830154600384015460049094015492945060ff808316946101009093046001600160a01b0316939192911686565b6000918252602082815260408084206001600160a01b0393909316845291905290205460ff1690565b6112627f2882d409365a50c684fae709d3db405f6fd025cd4d815228377ccc14efd8b57c3361120f565b604051806040016040528060018152602001603160f81b8152509061129a5760405162461bcd60e51b81526004016103b49190611b1e565b506004546001600160a01b03166112c35760405162461bcd60e51b81526004016103b490611b51565b6002816040516112d39190611b7e565b9081526020016040518091039020546000036113185760408051808201825260018152601960f91b6020820152905162461bcd60e51b81526103b49190600401611b1e565b60006003600160028460405161132e9190611b7e565b9081526020016040518091039020546113479190611c59565b8154811061135757611357611c6c565b9060005260206000209060050201905082600181111561137957611379611a3a565b60018083015460ff169081111561139257611392611a3a565b14604051806040016040528060018152602001603960f81b815250906113cb5760405162461bcd60e51b81526004016103b49190611b1e565b506000600482015460ff1660038111156113e7576113e7611a3a565b14604051806040016040528060018152602001600d60fa1b815250906114205760405162461bcd60e51b81526004016103b49190611b1e565b5060048101805460ff19166003179055600083600181111561144457611444611a3a565b036114d057600480546001830154600284015460405163a9059cbb60e01b81526001600160a01b036101009093048316948101949094526024840152169063a9059cbb906044016020604051808303816000875af11580156114aa573d6000803e3d6000fd5b505050506040513d601f19601f820116820180604052508101906114ce9190611bb3565b505b7fc935fdd51166b09960e62333d50dcef4e6bab07b475a680a06c03acbe392596b816040516104e99190611c82565b60008281526020819052604090206001015461151a81611524565b61034383836115b5565b61152e813361161a565b50565b61153b828261120f565b6103c7576000828152602081815260408083206001600160a01b03851684529091529020805460ff191660011790556115713390565b6001600160a01b0316816001600160a01b0316837f2f8788117e7eff1d82e926ec794901d17c78024a50270940304540a733656f0d60405160405180910390a45050565b6115bf828261120f565b156103c7576000828152602081815260408083206001600160a01b0385168085529252808320805460ff1916905551339285917ff6391f5c32d9c69d2a47ea670b442974b53935d1edc7fd64eb21e047a839171b9190a45050565b611624828261120f565b6103c75761163181611673565b61163c836020611685565b60405160200161164d929190611cda565b60408051601f198184030181529082905262461bcd60e51b82526103b491600401611b1e565b60606103186001600160a01b03831660145b60606000611694836002611d4f565b61169f906002611beb565b67ffffffffffffffff8111156116b7576116b76118f2565b6040519080825280601f01601f1916602001820160405280156116e1576020820181803683370190505b509050600360fc1b816000815181106116fc576116fc611c6c565b60200101906001600160f81b031916908160001a905350600f60fb1b8160018151811061172b5761172b611c6c565b60200101906001600160f81b031916908160001a905350600061174f846002611d4f565b61175a906001611beb565b90505b60018111156117d2576f181899199a1a9b1b9c1cb0b131b232b360811b85600f166010811061178e5761178e611c6c565b1a60f81b8282815181106117a4576117a4611c6c565b60200101906001600160f81b031916908160001a90535060049490941c936117cb81611d66565b905061175d565b5083156118215760405162461bcd60e51b815260206004820181905260248201527f537472696e67733a20686578206c656e67746820696e73756666696369656e7460448201526064016103b4565b9392505050565b60006020828403121561183a57600080fd5b81356001600160e01b03198116811461182157600080fd5b60006020828403121561186457600080fd5b5035919050565b6001600160a01b038116811461152e57600080fd5b6000806040838503121561189357600080fd5b8235915060208301356118a58161186b565b809150509250929050565b600080604083850312156118c357600080fd5b82356118ce8161186b565b915060208301356118a58161186b565b8035600281106118ed57600080fd5b919050565b634e487b7160e01b600052604160045260246000fd5b600082601f83011261191957600080fd5b813567ffffffffffffffff80821115611934576119346118f2565b604051601f8301601f19908116603f0116810190828211818310171561195c5761195c6118f2565b8160405283815286602085880101111561197557600080fd5b836020870160208301376000602085830101528094505050505092915050565b6000806000606084860312156119aa57600080fd5b6119b3846118de565b925060208401359150604084013567ffffffffffffffff8111156119d657600080fd5b6119e286828701611908565b9150509250925092565b600080604083850312156119ff57600080fd5b611a08836118de565b9150602083013567ffffffffffffffff811115611a2457600080fd5b611a3085828601611908565b9150509250929050565b634e487b7160e01b600052602160045260246000fd5b60028110611a6057611a60611a3a565b9052565b60048110611a6057611a60611a3a565b86815260c08101611a886020830188611a50565b6001600160a01b03861660408301526060820185905260808201849052611ab260a0830184611a64565b979650505050505050565b600060208284031215611acf57600080fd5b813567ffffffffffffffff811115611ae657600080fd5b611af284828501611908565b949350505050565b60005b83811015611b15578181015183820152602001611afd565b50506000910152565b6020815260008251806020840152611b3d816040850160208701611afa565b601f01601f19169190910160400192915050565b602080825260139082015272151bdad95b88155b9a5b9a5d1a585b1a5e9959606a1b604082015260600190565b60008251611b90818460208701611afa565b9190910192915050565b600060208284031215611bac57600080fd5b5051919050565b600060208284031215611bc557600080fd5b8151801515811461182157600080fd5b634e487b7160e01b600052601160045260246000fd5b8082018082111561031857610318611bd5565b8151815260208083015160c0830191611c1990840182611a50565b5060018060a01b036040840151166040830152606083015160608301526080830151608083015260a0830151611c5260a0840182611a64565b5092915050565b8181038181111561031857610318611bd5565b634e487b7160e01b600052603260045260246000fd5b81548152600182015460c0820190611ca06020840160ff8316611a50565b60081c6001600160a01b031660408301526002830154606083015260038301546080830152600483015460ff16611c5260a0840182611a64565b7f416363657373436f6e74726f6c3a206163636f756e7420000000000000000000815260008351611d12816017850160208801611afa565b7001034b99036b4b9b9b4b733903937b6329607d1b6017918401918201528351611d43816028840160208801611afa565b01602801949350505050565b808202811582820484141761031857610318611bd5565b600081611d7557611d75611bd5565b50600019019056fea26469706673582212209a996d5e0815f29b89e130d3dbc8d866b535c1e05fbf0df048425c3ec7bab58d64736f6c63430008120033",
  "linkReferences": {},
  "deployedLinkReferences": {}
}